:100C090012144F1213BBE4FF1214D0120FCB12129D
:100C19007C90006FE024D075F00AA4FFA3E024D0F3
:100C29002F900077F0900071E024D075F00AA4FFAE
:100C3900A3E024D02F900078F0900073E024D075C1
:100C4900F00AA4FFA3E024D02F900079F090006966
:100C5900E024D075F00AA4FFA3E024D02F90007AF5
:100C6900F090006BE024D075F00AA4FFA3E024D033
:100C79002F90007BF090006DE024D075F00AA4FF5E
:100C8900A3E024D02F90007CF0900077E075F00A63
:100C9900842430FB9000A17410F07D017F01120DB6
:100CA90057900077E075F00A84E5F02430FB900056
:100CB900A17410F07D017F09120D579000A17410E5
:100CC900F07B3A7D017F11120D57900078E075F0A5
:100CD9000A842430FB9000A17410F07D017F191261
:100CE9000D57900078E075F00A84E5F02430FB9008
:100CF90000A17410F07D017F21120D579000A1749D
:100D090010F07B3A7D017F29120D57900079E0752B
:100D1900F00A842430FB9000A17410F07D017F312A
:100D2900120D57900079E075F00A84E5F02430FB44
:100D39009000A17410F07D017F39120D5790007752
:0E0D4900E0FFA3E0FDA3E0FB1212CF020C1AA4
:030023000211A027
:1011A000C0E0C083C082C0D075D000C004C005C0FC
:0111B0000737
:1011B100309853AF99EF6440700C90007504F0A320
:1011C100740FF07580FE900075E064017027A3E054
:1011D100FD7C00D39400748094804019740F9DFDB0
:1011E100E49CFC74662DF58274003CF583EFF0906D
:1011F1000076E014F0EF640A700C9000757402F050
:08120100A3E4F07580FFC29820
:0F120900D007D005D004D0D0D082D083D0E0322F
:101494003F065B4F666D7D077F6F777C395E7971A0
:0214A400400006
:10142D00E4FEEEC39408748094805015EF30E00410
:10143D00D2958002C295EFC313FFC296D2960E804D
:01144D00E1BD
:01144E00227B
:0814C000C29712142DD29722ED
:1013BB007F8B1214C07F401214C0C2977FC01214CF
:1013CB002DE4FDEDC39410748094805008E4FF125B
:0713DB00142D0D80EED297E6
:0113E20022E8
:0714D000EF2488FF0214C0A5
:0513E30075F00A84FD15
:1013E800AC071C7F441214C0C297AF04EF25E02459
:1013F800C0FF12142DED90149493FF12142DD29760
:0114080022C1
:1012CF00A907AA05E97F011213E3E975F00A84ADB6
:1012DF00F07F021213E87D107F031213E8EA7F04F8
:1012EF001213E3EA75F00A84ADF07F051213E87D5F
:1012FF00107F061213E8EB75F00A84FD7F071213B7
:0D130F00E8EB75F00A84ADF07F080213E8EA
:060AB30090007D120A769E
:100AB900900081120A8200000001900085120A82CA
:100AC90000000001E4900089F0FFFEFDFC90007D2C
:100AD900E0F8A3E0F9A3E0FAA3E0FBC3120A65700A
:100AE9000590008904F0900081E0F8A3E0F9A3E003
:100AF900FAA3E0FB90007DE0FCA3E0FDA3E0FEA3E8
:100B0900E0FF1209D3E4FBFAF9F8C3120A6560237E
:100B1900900081E0FCA3E0FDA3E0FEA3E0FFE47BFD
:100B29000AF8120948900081120A76900089E004B7
:100B3900F080B3900081120A8200000001E47F086E
:100B4900FEFDFC900081E0F8A3E0F9A3E0FAA3E040
:100B5900FBD3120A654003020C08900089E0FFE408
:100B6900FCFDFE900081E0F8A3A3A3E0120A6590C2
:100B79000081505AA3A3A3E0FFC374099FFFC007D4
:100B8900A3E0F8A3E0F9A3E0FAA3E0FB90007DE07D
:100B9900FCA3E0FDA3E0FEA3E0FF1209D3E47B0A76
:100BA900FAF9F81209D3AF03AD07D0071213E89089
:100BB9000085E0FCA3E0FDA3E0FEA3E0FFE47B0ADF
:100BC900FAF9F8120948900085120A76800FA3A352
:100BD900A3E0FFC374099FFF7D111213E890008100
:100BE900E0FCA3E0FDA3E0FEA3E02401FFE43EFE58
:0F0BF900E43DFDE43CFC900081120A76020B46BD
:010C080022C9
:0D14A600007F047E817D77DDFEDEFCDFFA35
:0114B3002216
:10138C00D3EF9400EE940040257DC7EDD394007408
:10139C0080948040127C01ECD39400748094804043
:0E13AC00031C80F31D80E4EF1F70D51E80D25D
:0113BA002210
:100026000000000000000000002F00000000070094
:10003600070000147F147F1400242A7F2A1200620E
:1000460064081323003649552250000005030000BA
:1000560000001C224100000041221C000014083E42
:1000660008140008083E0808000000A06000000808
:10007600080808080000606000000020100804025C
:10008600003E5149453E0000427F4000004261511A
:100096004946002141454B31001814127F100027B4
:1000A60045454539003C4A49493000017109050377
:1000B60000364949493600064949291E00003636A8
:1000C600000000005636000000081422410000140B
:1000D60014141414000041221408000201510906E8
:1000E60000324959513E007C1211127C007F494969
:1000F6004936003E41414122007F4141221C007F9A
:1001060049494941007F09090901003E4149497AA7
:10011600007F0808087F0000417F41000020404121
:100126003F01007F08142241007F40404040007F8D
:10013600020C027F007F0408107F003E4141413ED1
:10014600007F09090906003E4151215E007F091919
:1001560029460046494949310001017F0101003F16
:100166004040403F001F2040201F003F4038403F96
:1001760000631408146300070870080700615149FA
:10018600454300007F41410000552A552A5500008D
:1001960041417F000004020102040040404040400B
:1001A600000001020400002054545478007F4844A3
:1001B600443800384444442000384444487F0038DA
:1001C6005454541800087E0901020018A4A4A47C03
:1001D600007F080404780000447D400000408084CD
:1001E6007D00007F102844000000417F4000007C15
:1001F60004180478007C0804047800384444443821
:1002060000FC242424180018242418FC007C08046C
:10021600040800485454542000043F444020003C45
:100226004040207C001C2040201C003C4030403CCC
:10023600004428102844001CA0A0A07C004464545C
:100246004C441414141414140000000000000000A0
:100256000000000000000000000000F800000000A0
:10026600000000333000000000100C06100C0600E1
:10027600000000000000000040C07840C078400048
:10028600043F04043F040400007088FC08300000AA
:10029600001820FF211E0000F008F000E018000002
:1002A60000211C031E211E0000F0088870000000BB
:1002B6001E2123241927211010160E00000000000D
:1002C6000000000000000000000000E0180402002A
:1002D600000000071820400000020418E00000009B
:1002E6000040201807000000404080F08040400099
:1002F6000202010F01020200000000F000000000EF
:100306000101011F010101000000000000000000C2
:1003160080B0700000000000000000000000000037
:1003260000010101010101010000000000000000C0
:10033600003030000000000000000000806018045B
:10034600006018060100000000E010080810E00038
:10035600000F102020100F00001010F80000000001
:100366000020203F20200000007008080888700048
:1003760000302824222130000030088888483000C8
:100386000018202020110E000000C02010F80000E8
:1003960000070424243F240000F808888808080081
:1003A6000019212020110E0000E010888818000096
:1003B600000F112020110E0000380808C838080068
:1003C6000000003F000000000070880808887000E8
:1003D600001C222121221C0000E010080810E00069
:1003E6000000312222110F00000000C0C0000000F2
:1003F6000000003030000000000000800000000017
:10040600000080600000000000008040201008000E
:1004160000010204081020004040404040404000D7
:1004260004040404040404000008102040800000B2
:100436000020100804020100007048080808F000B7
:100446000000003036010000C030C828E810E00087
:100456000718272423140B000000C038E000000012
:10046600203C23020227382008F88888887000007C
:10047600203F202020110E00C03008080808380050
:10048600071820202010080008F808080810E000C7
:10049600203F202020100F0008F88888E808100068
:1004A600203F20202320180008F88888E80810003C
:1004B600203F200003000000C03008080838000074
:1004C60007182020221E020008F808000008F80875
:1004D600203F210101213F20000808F808080000FC
:1004E6000020203F2020000000000808F80808002F
:1004F600C08080807F00000008F888C028180800A7
:10050600203F20012638200008F8080000000000DF
:10051600203F20202020300008F8F800F8F80800D6
:10052600203F003F003F200008F830C00008F808D0
:10053600203F200007183F00E01008080810E000E0
:100546000F10202020100F0008F808080808F000F7
:10055600203F210101010000E01008080810E0001A
:100566000F18242438504F0008F8888888887000AF
:10057600203F2000030C302000708808080838004F
:100586000038202121221C00180808F80808180045
:100596000000203F2000000008F808000008F808C6
:1005A600001F202020201F000878880000C8380877
:1005B600000007380E010000F80800F80008F800EF
:1005C600033C0700073C0300081868808068180889
:1005D60020302C03032C30200838C800C838080007
:1005E6000000203F2000000010080808C838080056
:1005F6002038262120201800000000FE02020200FA
:100606000000007F40404000000C30C000000000A9
:10061600000000010638C00000020202FE000000D1
:10062600004040407F000000000004020202040077
:1006360000000000000000000000000000000000B4
:10064600808080808080808000020204000000009C
:100656000000000000000000000080808080000094
:100666000019242222223F2008F800808000000082
:10067600003F112020110E00000000808080000045
:10068600000E112020201100000000808088F80054
:10069600000E112020103F20000080808080000086
:1006A600001F222222221300008080F088888818EA
:1006B6000020203F202000000000808080808000F5
:1006C600006B94949493600008F80080808000008A
:1006D600203F210000203F20008098980000000065
:1006E6000020203F20200000000000809898000095
:1006F60000C08080807F000008F8000080808000B5
:10070600203F24022D302000000808F800000000D9
:100716000020203F20200000808080808080800094
:10072600203F20003F20003F808000808080000026
:10073600203F210000203F200000808080800000B4
:10074600001F202020201F008080008080000000E5
:1007560080FFA12020110E00000000808080800014
:10076600000E112020A0FF80808080008080800005
:1007760020203F2120000100000080808080800032
:100786000033242424241900008080E080800000A7
:100796000000001F202000008080000000808000F4
:1007A600001F202020103F20808080000080808055
:1007B60000010E30080601008080008000808080E5
:1007C6000F300C030C300F0000808000808080000A
:1007D6000020312E0E312000808080000080808035
:1007E60080818E70180601000080808080808000E5
:1007F6000021302C2221300000000000807C020203
:1008060000000000003F404000000000FF00000024
:1008160000000000FF0000000002027C80000000D3
:100826000040403F000000000006010102020404EF
:10083600000000000000000040221408F40200F846
:100846000808FF0808F80000084482413F002063BA
:1008560021213F21293360002010E824272424E4A5
:1008660024342C20E000000080601F090909097F5C
:10087600090949897F00000000007C545556547CC4
:10088600545655547C000000010101FD454545457F
:08089600454545FD010101008B
:10131C00F583E5822FF582E43583F583E493FF7D35
:01132C004080
:10132D009000A5EFF0A3EDF01214D77F78121409F9
:10133D001214E59000A6E0FF1214091214E59000B6
:0C134D00A5E0FF1214091214E50214DEE2
:10127C00E490009EF090009EE0FFC394087480946C
:10128C0080503FEF24B0FFE4FD12132DE4FDFF125C
:10129C00132DE4FD7F1012132DE490009FF09000AD
:1012AC009FE0C3948074809480500F7D40E4FF12C3
:1012BC00132D90009FE004F080E490009EE004F079
:0212CC0080B3ED
:0112CE0022FD
:0813590090009EE0FFA3E0FDFF
:101361009000A4EFF0ED24B0FFE4FD12132D9000E6
:10137100A4E054F0C4540F4410FFE4FD12132D9067
:0B13810000A4E0540FFFE4FD02132D58
:0B0D570090009FEDF090009EEFF0FD7B
:100D6200E49000A2F0A3F0EB24E09000A2F0EDD317
:100D7200947F74809480400AE490009EF0A3E02463
:100D820002F09000A1E064106003020E0E121359EB
:100D9200E49000A3F09000A3E0FFC3940874809451
:100DA2008050259000A2E075F010A42FF582E43562
:100DB200F0F583E582244EF582E583340212132690
:100DC2009000A3E004F080CD90009EE0FFA3E00439
:100DD200FD121361E49000A3F09000A3E0FFC3941E
:100DE200087480948050569000A2E075F010A42FF1
:100DF200F582E435F0F583E5822456F582E5833405
:100E0200021213269000A3E004F080CD121359E4DD
:100E12009000A3F09000A3E0FFC394067480948036
:100E2200501B9000A2E075F006A42426F582E5F09E
:0D0E3200340012131C9000A3E004F080D7E0
:010E3F002290
:100E40007F647E0012138CE4FD7FAE12132DE4FD4F
:100E50007F2012132DE4FD7F1012132DE4FD7FB0CF
:100E600012132DE4FD7FC112132DE4FDFF12132D8B
:100E7000E4FD7F1012132DE4FD7F4012132DE4FDDD
:100E80007F8112132DE4FD7FFF12132DE4FD7FA15E
:100E900012132DE4FD7FC812132DE4FD7FA612135B
:100EA0002DE4FD7FA812132DE4FD7F3F12132DE4E6
:100EB000FD7FA412132DE4FD7FD312132DE4FDFF5B
:100EC00012132DE4FD7FD512132DE4FD7FF01213D4
:100ED0002DE4FD7FD912132DE4FD7F2212132DE4A2
:100EE000FD7FDA12132DE4FD7F1212132DE4FD7F36
:100EF000DB12132DE4FD7F2012132DE4FD7F8D12F4
:100F0000132DE4FD7F1412132DE4FD7FAF02132D8A
:10146A00E4FD7F8D12132DE4FD7F1412132DE4FD8C
:05147A007FAF02132DFD
:10147F00E4FD7F8D12132DE4FD7F1012132DE4FD7B
:05148F007FAE02132DE9
:070003009000B3EFF0A90526
:10000A007F017E00AD0119ED600C9000B3E0FD7C2C
:06001A00001208CB80EE8D
:0100200022BD
:0E0F1000900095EFF0A3EDF0A3EAF0A3EBF054
:100F1E00E490009DF090009BF0900099E0FF90000F
:100F2E009BE0FEC39F4003020FCAC3EF9E14FD7FDA
:100F3E000A120003900097E0FCA3E0FDCFCDCFCEC8
:100F4E00CCCE1208DD7C007D0A1208DD90009CEDEF
:100F5E00F0A3E07036900099E014FF90009BE0FE45
:100F6E00C39F5027A3E0701D90009AE0FCC3138E20
:100F7E00F0A4FF900095E02FFFA3E0FD9000A1EC00
:100F8E00F07B20802B90009D7401F090009AE0FE83
:100F9E00C313FFA3E0FDEF8DF0A4FF900095E02FAB
:100FAE00FFA3E0FD90009CE02430FB9000A1EEF04A
:0C0FBE00120D5790009BE004F0020F277A
:010FCA002204
:101218009000A7EFF0A3EDF0A3EBF0A3EAF0A3E9A9
:01122800F0D5
:10122900E49000ADF09000A9E0FBA3E0FAA3E0F997
:101239009000ADE0F58275830012089EFB60339043
:1012490000A7E0FFA3E0FD9000ACE09000A1F01240
:101259000D579000A7E02408F0E0D39478748094A7
:10126900804007E4F0A3E02402F09000ADE004F030
:0212790080B340
:01127B002250
:0D1118009000B0EBF09000AEEFF0A3EDF012
:10112500E49000B2F0121361E49000B1F09000B1C8
:10113500E0FFC394107480948050209000B0E0C408
:101145003354E0243EF582E4340812131C9000B2B7
:10115500E004F09000B1E004F080D29000AEE0FF32
:10116500A3E004FD121361E49000B1F09000B1E03A
:10117500FFC394107480948050209000B0E0C43375
:1011850054E0244EF582E4340812131C9000B2E0BA
:0A11950004F09000B1E004F080D2F5
:01119F00222D
:0A10860090008AEFF090008CEBF070
:10109000E4900091F0A3F090008DE0FF54077008F9
:1010A000EF131313541F800A90008DE01313135491
:1010B0001F04900094F0900094EDF090008DE0FFFC
:1010C000900094E0FDC39F504E90008AE0FF121301
:1010D0006190008AE0900093F090008CE0FF900017
:1010E00093E0C39F502990008EE0FBA3E0FAA3E0B9
:1010F000F9A3E475F00112093285F082F583120834
:101100009EFF7D4012132D900093E004F080CA9062
:071110000094E004F080A44C
:0111170022B5
:100FCB00E4FD7FAE12132DE4FDFF12132DE4FD7F24
:100FDB001012132DE4FD7F4012132DE4FD7FB01290
:100FEB00132DE4FD7F8112132DE4FD7FFF12132DD2
:100FFB00E4FD7FA112132DE4FD7FA612132DE4FD5A
:10100B007FA812132DE4FD7F3F12132DE4FD7FC843
:10101B0012132DE4FD7FD312132DE4FDFF12132DBC
:10102B00E4FD7FD512132DE4FD7F8012132DE4FD1B
:10103B007FD812132DE4FD7F0512132DE4FD7FD90C
:10104B0012132DE4FD7FF112132DE4FD7FDA121341
:10105B002DE4FD7F1212132DE4FD7FDB12132DE423
:10106B00FD7F4012132DE4FD7F8D12132DE4FD7FC8
:0B107B001412132DE4FD7FAF02132DB3
:0714D700D2A4D2A5C2A52298
:0714DE00D2A4C2A5D2A52291
:10140900C2A4E4FDFCEF30E703D38001C392A5D267
:10141900A400C2A4EF25E0FF0DBD00010CED640896
:031429004C70E222
:01142C00229D
:0514E500D2A4C2A42204
:10144F0053877F75985053890F438920758BFD758E
:0B145F008DFDC2ABD28ED2AFD2AC220A
:0814C8008F993099FDC29922B1
:030000000214B433
:0C14B400787FE4F6D8FD758107020C0972
:10089E00BB010CE58229F582E5833AF583E022500F
:1008AE0006E92582F8E622BBFE06E92582F8E22259
:0D08BE00E58229F582E5833AF583E4932273
:1008CB00EF8DF0A4A8F0CF8CF0A428CE8DF0A42E41
:0208DB00FE22FB
:1008DD00BC000BBE0029EF8DF084FFADF022E4CCFF
:1008ED00F875F008EF2FFFEE33FEEC33FCEE9DECC8
:1008FD00984005FCEE9DFE0FD5F0E9E4CEFD22ED0E
:10090D00F8F5F0EE8420D21CFEADF075F008EF2F57
:10091D00FFED33FD4007985006D5F0F222C398FD48
:05092D000FD5F0EA22E5
:10093200A3F8E0C5F025F0F0E58215827002158378
:06094200E0C838F0E822D5
:10094800E88FF0A4CC8BF0A42CFCE98EF0A42CFC4E
:100958008AF0EDA42CFCEA8EF0A4CDA8F08BF0A4CC
:100968002DCC3825F0FDE98FF0A42CCD35F0FCEB2B
:100978008EF0A4FEA9F0EB8FF0A4CFC5F02ECD39F0
:0F098800FEE43CFCEAA42DCE35F0FDE43CFC225D
:1009970075F008758200EF2FFFEE33FECD33CDCC17
:1009A70033CCC58233C5829BED9AEC99E58298409A
:1009B7000CF582EE9BFEED9AFDEC99FC0FD5F0D677
:1009C700E4CEFBE4CDFAE4CCF9A88222B800C1B9A1
:1009D7000059BA002DEC8BF084CFCECDFCE5F0CBDF
:1009E700F97818EF2FFFEE33FEED33FDEC33FCEB18
:1009F70033FB10D703994004EB99FB0FD8E5E4F9D3
:100A0700FA227818EF2FFFEE33FEED33FDEC33FCBF
:100A1700C933C910D7059BE99A4007EC9BFCE99AB3
:100A2700F90FD8E0E4C9FAE4CCFB2275F010EF2FF8
:100A3700FFEE33FEED33FDCC33CCC833C810D707F8
:100A47009BEC9AE899400AED9BFDEC9AFCE899F833
:0E0A57000FD5F0DAE4CDFBE4CCFAE4C8F922C6
:100A6500EB9FF5F0EA9E42F0E99D42F0E89C45F0E7
:010A7500225E
:0C0A7600ECF0A3EDF0A3EEF0A3EFF022F3
:100A8200A8828583F0D083D082120A99120A991221
:100A92000A99120A99E473E493A3C583C5F0C58346
:100AA200C8C582C8F0A3C583C5F0C583C8C582C8BE
:010AB2002221
:00000001FF
