:10089E0012152112148DE4FF1215A212109D1213BF
:1008AE004E90006FE024D075F00AA4FFA3E024D090
:1008BE002F900077F0900071E024D075F00AA4FF1D
:1008CE00A3E024D02F900078F0900073E024D07530
:1008DE00F00AA4FFA3E024D02F900079F0900069D5
:1008EE00E024D075F00AA4FFA3E024D02F90007A64
:1008FE00F090006BE024D075F00AA4FFA3E024D0A2
:10090E002F90007BF090006DE024D075F00AA4FFCC
:10091E00A3E024D02F90007CF0900077E075F00AD1
:10092E00842430FB9000A17410F0E4FD7F01120EC0
:10093E0029900077E075F00A84E5F02430FB9000F2
:10094E00A17410F0E4FD7F09120E299000A174101D
:10095E00F07B3AE4FD7F11120E29900078E075F0DD
:10096E000A842430FB9000A17410F0E4FD7F19126C
:10097E000E29900078E075F00A84E5F02430FB90A3
:10098E0000A17410F0E4FD7F21120E299000A174D5
:10099E0010F07B3AE4FD7F29120E29900079E07564
:1009AE00F00A842430FB9000A17410F0E4FD7F3136
:1009BE00120E29900079E075F00A84E5F02430FBE0
:1009CE009000A17410F0E4FD7F39120E2990007A88
:1009DE00E075F00A842430FB9000A17410F07D04C1
:1009EE007F01120E2990007AE075F00A84E5F0245A
:1009FE0030FB9000A17410F07D047F09120E299037
:100A0E0000A17410F07B2F7D047F11120E2990002F
:100A1E007BE075F00A842430FB9000A17410F07D09
:100A2E00047F19120E2990007BE075F00A84E5F020
:100A3E002430FB9000A17410F07D047F21120E294A
:100A4E009000A17410F07B2F7D047F29120E299047
:100A5E00007CE075F00A842430FB9000A17410F045
:100A6E007D047F31120E2990007CE075F00A84E53A
:100A7E00F02430FB9000A17410F07D047F39120E2B
:100A8E0029900067E0640D9000A170077410F07B50
:100A9E005880057410F07B207D027F01120E299084
:100AAE000077E0FFA3E0FDA3E0FB1213A10208AF65
:0300230002127254
:10127200C0E0C083C082C0D075D000C004C005C029
:011282000764
:10128300309853AF99EF6440700C90007504F0A34D
:10129300740FF07580FE900075E064017027A3E081
:1012A300FD7C00D39400748094804019740F9DFDDD
:1012B300E49CFC74662DF58274003CF583EFF0909A
:1012C3000076E014F0EF640A700C9000757402F07D
:0812D300A3E4F07580FFC2984E
:0F12DB00D007D005D004D0D0D082D083D0E0325D
:101566003F065B4F666D7D077F6F777C395E7971CD
:02157600400033
:1014FF00E4FEEEC39408748094805015EF30E0043E
:10150F00D2958002C295EFC313FFC296D2960E807A
:01151F00E1EA
:0115200022A8
:08159200C2971214FFD2972248
:10148D007F8B1215927F40121592C2977FC0121456
:10149D00FFE4FDEDC39410748094805008E4FF12B6
:0714AD0014FF0D80EED29741
:0114B4002215
:0715A200EF2488FF021592FF
:0514B50075F00A84FD42
:1014BA00AC071C7F44121592C297AF04EF25E024B3
:1014CA00C0FF1214FFED90156693FF1214FFD29716
:0114DA0022EF
:1013A100A907AA05E97F011214B5E975F00A84AD10
:1013B100F07F021214BA7D107F031214BAEA7F047F
:1013C1001214B5EA75F00A84ADF07F051214BA7DE6
:1013D100107F061214BAEB75F00A84FD7F07121410
:0D13E100BAEB75F00A84ADF07F080214BA73
:060CD30090007D120C965A
:100CD900900081120CA200000001900085120CA264
:100CE90000000001E4900089F0FFFEFDFC90007D0A
:100CF900E0F8A3E0F9A3E0FAA3E0FBC3120C8570C6
:100D09000590008904F0900081E0F8A3E0F9A3E0E0
:100D1900FAA3E0FB90007DE0FCA3E0FDA3E0FEA3C5
:100D2900E0FF120BF3E4FBFAF9F8C3120C85602318
:100D3900900081E0FCA3E0FDA3E0FEA3E0FFE47BDB
:100D49000AF8120B68900081120C96900089E00451
:100D5900F080B3900081120CA200000001E47F082A
:100D6900FEFDFC900081E0F8A3E0F9A3E0FAA3E01E
:100D7900FBD3120C854003020E28900089E0FFE4A2
:100D8900FCFDFE900081E0F8A3A3A3E0120C85907E
:100D99000081505AA3A3A3E0FFC374099FFFC007B2
:100DA900A3E0F8A3E0F9A3E0FAA3E0FB90007DE05B
:100DB900FCA3E0FDA3E0FEA3E0FF120BF3E47B0A32
:100DC900FAF9F8120BF3AF03AD07D0071214BA9072
:100DD9000085E0FCA3E0FDA3E0FEA3E0FFE47B0ABD
:100DE900FAF9F8120B68900085120C96800FA3A3EC
:100DF900A3E0FFC374099FFF7D111214BA9000810B
:100E0900E0FCA3E0FDA3E0FEA3E02401FFE43EFE35
:0F0E1900E43DFDE43CFC900081120C96020D6656
:010E280022A7
:0D157800007F047E817D77DDFEDEFCDFFA62
:011585002243
:10145E00D3EF9400EE940040257DC7EDD394007435
:10146E0080948040127C01ECD39400748094804070
:0E147E00031C80F31D80E4EF1F70D51E80D28A
:01148C00223D
:100026000000000000000000002F00000000070094
:10003600070000147F147F1400242A7F2A1200620E
:1000460064081323003649552250000005030000BA
:1000560000001C224100000041221C000014083E42
:1000660008140008083E0808000000A06000000808
:10007600080808080000606000000020100804025C
:10008600003E5149453E0000427F4000004261511A
:100096004946002141454B31001814127F100027B4
:1000A60045454539003C4A49493000017109050377
:1000B60000364949493600064949291E00003636A8
:1000C600000000005636000000081422410000140B
:1000D60014141414000041221408000201510906E8
:1000E60000324959513E007C1211127C007F494969
:1000F6004936003E41414122007F4141221C007F9A
:1001060049494941007F09090901003E4149497AA7
:10011600007F0808087F0000417F41000020404121
:100126003F01007F08142241007F40404040007F8D
:10013600020C027F007F0408107F003E4141413ED1
:10014600007F09090906003E4151215E007F091919
:1001560029460046494949310001017F0101003F16
:100166004040403F001F2040201F003F4038403F96
:1001760000631408146300070870080700615149FA
:10018600454300007F41410000552A552A5500008D
:1001960041417F000004020102040040404040400B
:1001A600000001020400002054545478007F4844A3
:1001B600443800384444442000384444487F0038DA
:1001C6005454541800087E0901020018A4A4A47C03
:1001D600007F080404780000447D400000408084CD
:1001E6007D00007F102844000000417F4000007C15
:1001F60004180478007C0804047800384444443821
:1002060000FC242424180018242418FC007C08046C
:10021600040800485454542000043F444020003C45
:100226004040207C001C2040201C003C4030403CCC
:10023600004428102844001CA0A0A07C004464545C
:100246004C441414141414140000000000000000A0
:100256000000000000000000000000F800000000A0
:10026600000000333000000000100C06100C0600E1
:10027600000000000000000040C07840C078400048
:10028600043F04043F040400007088FC08300000AA
:10029600001820FF211E0000F008F000E018000002
:1002A60000211C031E211E0000F0088870000000BB
:1002B6001E2123241927211010160E00000000000D
:1002C6000000000000000000000000E0180402002A
:1002D600000000071820400000020418E00000009B
:1002E6000040201807000000404080F08040400099
:1002F6000202010F01020200000000F000000000EF
:100306000101011F010101000000000000000000C2
:1003160080B0700000000000000000000000000037
:1003260000010101010101010000000000000000C0
:10033600003030000000000000000000806018045B
:10034600006018060100000000E010080810E00038
:10035600000F102020100F00001010F80000000001
:100366000020203F20200000007008080888700048
:1003760000302824222130000030088888483000C8
:100386000018202020110E000000C02010F80000E8
:1003960000070424243F240000F808888808080081
:1003A6000019212020110E0000E010888818000096
:1003B600000F112020110E0000380808C838080068
:1003C6000000003F000000000070880808887000E8
:1003D600001C222121221C0000E010080810E00069
:1003E6000000312222110F00000000C0C0000000F2
:1003F6000000003030000000000000800000000017
:10040600000080600000000000008040201008000E
:1004160000010204081020004040404040404000D7
:1004260004040404040404000008102040800000B2
:100436000020100804020100007048080808F000B7
:100446000000003036010000C030C828E810E00087
:100456000718272423140B000000C038E000000012
:10046600203C23020227382008F88888887000007C
:10047600203F202020110E00C03008080808380050
:10048600071820202010080008F808080810E000C7
:10049600203F202020100F0008F88888E808100068
:1004A600203F20202320180008F88888E80810003C
:1004B600203F200003000000C03008080838000074
:1004C60007182020221E020008F808000008F80875
:1004D600203F210101213F20000808F808080000FC
:1004E6000020203F2020000000000808F80808002F
:1004F600C08080807F00000008F888C028180800A7
:10050600203F20012638200008F8080000000000DF
:10051600203F20202020300008F8F800F8F80800D6
:10052600203F003F003F200008F830C00008F808D0
:10053600203F200007183F00E01008080810E000E0
:100546000F10202020100F0008F808080808F000F7
:10055600203F210101010000E01008080810E0001A
:100566000F18242438504F0008F8888888887000AF
:10057600203F2000030C302000708808080838004F
:100586000038202121221C00180808F80808180045
:100596000000203F2000000008F808000008F808C6
:1005A600001F202020201F000878880000C8380877
:1005B600000007380E010000F80800F80008F800EF
:1005C600033C0700073C0300081868808068180889
:1005D60020302C03032C30200838C800C838080007
:1005E6000000203F2000000010080808C838080056
:1005F6002038262120201800000000FE02020200FA
:100606000000007F40404000000C30C000000000A9
:10061600000000010638C00000020202FE000000D1
:10062600004040407F000000000004020202040077
:1006360000000000000000000000000000000000B4
:10064600808080808080808000020204000000009C
:100656000000000000000000000080808080000094
:100666000019242222223F2008F800808000000082
:10067600003F112020110E00000000808080000045
:10068600000E112020201100000000808088F80054
:10069600000E112020103F20000080808080000086
:1006A600001F222222221300008080F088888818EA
:1006B6000020203F202000000000808080808000F5
:1006C600006B94949493600008F80080808000008A
:1006D600203F210000203F20008098980000000065
:1006E6000020203F20200000000000809898000095
:1006F60000C08080807F000008F8000080808000B5
:10070600203F24022D302000000808F800000000D9
:100716000020203F20200000808080808080800094
:10072600203F20003F20003F808000808080000026
:10073600203F210000203F200000808080800000B4
:10074600001F202020201F008080008080000000E5
:1007560080FFA12020110E00000000808080800014
:10076600000E112020A0FF80808080008080800005
:1007760020203F2120000100000080808080800032
:100786000033242424241900008080E080800000A7
:100796000000001F202000008080000000808000F4
:1007A600001F202020103F20808080000080808055
:1007B60000010E30080601008080008000808080E5
:1007C6000F300C030C300F0000808000808080000A
:1007D6000020312E0E312000808080000080808035
:1007E60080818E70180601000080808080808000E5
:1007F6000021302C2221300000000000807C020203
:1008060000000000003F404000000000FF00000024
:1008160000000000FF0000000002027C80000000D3
:100826000040403F000000000006010102020404EF
:10083600000000000000000040221408F40200F846
:100846000808FF0808F80000084482413F002063BA
:1008560021213F21293360002010E824272424E4A5
:1008660024342C20E000000080601F090909097F5C
:10087600090949897F00000000007C545556547CC4
:10088600545655547C000000010101FD454545457F
:08089600454545FD010101008B
:1013EE00F583E5822FF582E43583F583E493FF7D63
:0113FE0040AE
:1013FF009000A5EFF0A3EDF01215A97F781214DB82
:10140F001215B79000A6E0FF1214DB1215B790006B
:0C141F00A5E0FF1214DB1215B70215B097
:10134E00E490009EF090009EE0FFC3940874809499
:10135E0080503FEF24B0FFE4FD1213FFE4FDFF12B7
:10136E0013FFE4FD7F101213FFE490009FF0900036
:10137E009FE0C3948074809480500F7D40E4FF12F0
:10138E0013FF90009FE004F080E490009EE004F0D4
:02139E0080B31A
:0113A000222A
:08142B0090009EE0FFA3E0FD2C
:101433009000A4EFF0ED24B0FFE4FD1213FF900041
:10144300A4E054F0C4540F4410FFE4FD1213FF90C2
:0B14530000A4E0540FFFE4FD0213FFB3
:0B0E290090009FEDF090009EEFF0FDA8
:100E3400E49000A2F0A3F0EB24E09000A2F0EDD344
:100E4400947F74809480400AE490009EF0A3E02490
:100E540002F09000A1E064106003020EE012142B73
:100E6400E49000A3F09000A3E0FFC394087480947E
:100E74008050259000A2E075F010A42FF582E4358F
:100E8400F0F583E582244EF582E58334021213F8EB
:100E94009000A3E004F080CD90009EE0FFA3E00466
:100EA400FD121433E49000A3F09000A3E0FFC39478
:100EB400087480948050569000A2E075F010A42F1E
:100EC400F582E435F0F583E5822456F582E5833432
:100ED400021213F89000A3E004F080CD12142BE466
:100EE4009000A3F09000A3E0FFC394067480948064
:100EF400501B9000A2E075F006A42426F582E5F0CC
:0D0F040034001213EE9000A3E004F080D73B
:010F110022BD
:100F12007F647E0012145EE4FD7FAE1213FFE4FDD7
:100F22007F201213FFE4FD7F101213FFE4FD7FB058
:100F32001213FFE4FD7FC11213FFE4FDFF1213FF42
:100F4200E4FD7F101213FFE4FD7F401213FFE4FD66
:100F52007F811213FFE4FD7FFF1213FFE4FD7FA1E7
:100F62001213FFE4FD7FC81213FFE4FD7FA61213E4
:100F7200FFE4FD7FA81213FFE4FD7F3F1213FFE49D
:100F8200FD7FA41213FFE4FD7FD31213FFE4FDFFE4
:100F92001213FFE4FD7FD51213FFE4FD7FF012135D
:100FA200FFE4FD7FD91213FFE4FD7F221213FFE459
:100FB200FD7FDA1213FFE4FD7F121213FFE4FD7FBF
:100FC200DB1213FFE4FD7F201213FFE4FD7F8D127D
:100FD20013FFE4FD7F141213FFE4FD7FAF0213FF42
:10153C00E4FD7F8D1213FFE4FD7F141213FFE4FD15
:05154C007FAF0213FF58
:10155100E4FD7F8D1213FFE4FD7F101213FFE4FD04
:051561007FAE0213FF44
:070003009000B3EFF0A90526
:10000A007F017E00AD0119ED600C9000B3E0FD7C2C
:06001A0000120AEB80EE6B
:0100200022BD
:0E0FE200900095EFF0A3EDF0A3EAF0A3EBF082
:100FF000E490009DF090009BF0900099E0FF90003D
:101000009BE0FEC39F400302109CC3EF9E14FD7F34
:101010000A120003900097E0FCA3E0FDCFCDCFCEF5
:10102000CCCE120AFD7C007D0A120AFD90009CEDD8
:10103000F0A3E07036900099E014FF90009BE0FE72
:10104000C39F5027A3E0701D90009AE0FCC3138E4D
:10105000F0A4FF900095E02FFFA3E0FD9000A1EC2D
:10106000F07B20802B90009D7401F090009AE0FEB0
:10107000C313FFA3E0FDEF8DF0A4FF900095E02FD8
:10108000FFA3E0FD90009CE02430FB9000A1EEF077
:0C109000120E2990009BE004F0020FF902
:01109C002231
:1012EA009000A7EFF0A3EDF0A3EBF0A3EAF0A3E9D7
:0112FA00F003
:1012FB00E49000ADF09000A9E0FBA3E0FAA3E0F9C5
:10130B009000ADE0F582758300120ABEFB6033904E
:10131B0000A7E0FFA3E0FD9000ACE09000A1F0126D
:10132B000E299000A7E02408F0E0D3947874809401
:10133B00804007E4F0A3E02402F09000ADE004F05D
:02134B0080B36D
:01134D00227D
:0D11EA009000B0EBF09000AEEFF0A3EDF040
:1011F700E49000B2F0121433E49000B1F09000B123
:10120700E0FFC394107480948050209000B0E0C435
:101217003354E0243EF582E434081213EE9000B212
:10122700E004F09000B1E004F080D29000AEE0FF5F
:10123700A3E004FD121433E49000B1F09000B1E094
:10124700FFC394107480948050209000B0E0C433A2
:1012570054E0244EF582E434081213EE9000B2E015
:0A12670004F09000B1E004F080D222
:01127100225A
:0A11580090008AEFF090008CEBF09D
:10116200E4900091F0A3F090008DE0FF5407700826
:10117200EF131313541F800A90008DE013131354BE
:101182001F04900094F0900094EDF090008DE0FF29
:10119200900094E0FDC39F504E90008AE0FF12142D
:1011A2003390008AE0900093F090008CE0FF900072
:1011B20093E0C39F502990008EE0FBA3E0FAA3E0E6
:1011C200F9A3E475F001120B5285F082F583120A3D
:1011D200BEFF7D401213FF900093E004F080CA909E
:0711E2000094E004F080A47A
:0111E90022E3
:10109D00E4FD7FAE1213FFE4FDFF1213FFE4FD7FAD
:1010AD00101213FFE4FD7F401213FFE4FD7FB01219
:1010BD0013FFE4FD7F811213FFE4FD7FFF1213FF89
:1010CD00E4FD7FA11213FFE4FD7FA61213FFE4FDE3
:1010DD007FA81213FFE4FD7F3F1213FFE4FD7FC8CD
:1010ED001213FFE4FD7FD31213FFE4FDFF1213FF74
:1010FD00E4FD7FD51213FFE4FD7F801213FFE4FDA5
:10110D007FD81213FFE4FD7F051213FFE4FD7FD995
:10111D001213FFE4FD7FF11213FFE4FD7FDA1213CA
:10112D00FFE4FD7F121213FFE4FD7FDB1213FFE4DA
:10113D00FD7F401213FFE4FD7F8D1213FFE4FD7F51
:0B114D00141213FFE4FD7FAF0213FF3C
:0715A900D2A4D2A5C2A522C5
:0715B000D2A4C2A5D2A522BE
:1014DB00C2A4E4FDFCEF30E703D38001C392A5D295
:1014EB00A400C2A4EF25E0FF0DBD00010CED6408C4
:0314FB004C70E250
:0114FE0022CB
:0515B700D2A4C2A42231
:1015210053877F75985053890F438920758BFD75BB
:0B1531008DFDC2ABD28ED2AFD2AC2237
:08159A008F993099FDC29922DE
:0100210022BC
:0300000002158660
:0C158600787FE4F6D8FD75810702089E0E
:100ABE00BB010CE58229F582E5833AF583E02250ED
:100ACE0006E92582F8E622BBFE06E92582F8E22237
:0D0ADE00E58229F582E5833AF583E4932251
:100AEB00EF8DF0A4A8F0CF8CF0A428CE8DF0A42E1F
:020AFB00FE22D9
:100AFD00BC000BBE0029EF8DF084FFADF022E4CCDD
:100B0D00F875F008EF2FFFEE33FEEC33FCEE9DECA5
:100B1D00984005FCEE9DFE0FD5F0E9E4CEFD22EDEB
:100B2D00F8F5F0EE8420D21CFEADF075F008EF2F35
:100B3D00FFED33FD4007985006D5F0F222C398FD26
:050B4D000FD5F0EA22C3
:100B5200A3F8E0C5F025F0F0E58215827002158356
:060B6200E0C838F0E822B3
:100B6800E88FF0A4CC8BF0A42CFCE98EF0A42CFC2C
:100B78008AF0EDA42CFCEA8EF0A4CDA8F08BF0A4AA
:100B88002DCC3825F0FDE98FF0A42CCD35F0FCEB09
:100B98008EF0A4FEA9F0EB8FF0A4CFC5F02ECD39CE
:0F0BA800FEE43CFCEAA42DCE35F0FDE43CFC223B
:100BB70075F008758200EF2FFFEE33FECD33CDCCF5
:100BC70033CCC58233C5829BED9AEC99E582984078
:100BD7000CF582EE9BFEED9AFDEC99FC0FD5F0D655
:100BE700E4CEFBE4CDFAE4CCF9A88222B800C1B97F
:100BF7000059BA002DEC8BF084CFCECDFCE5F0CBBD
:100C0700F97818EF2FFFEE33FEED33FDEC33FCEBF5
:100C170033FB10D703994004EB99FB0FD8E5E4F9B0
:100C2700FA227818EF2FFFEE33FEED33FDEC33FC9D
:100C3700C933C910D7059BE99A4007EC9BFCE99A91
:100C4700F90FD8E0E4C9FAE4CCFB2275F010EF2FD6
:100C5700FFEE33FEED33FDCC33CCC833C810D707D6
:100C67009BEC9AE899400AED9BFDEC9AFCE899F811
:0E0C77000FD5F0DAE4CDFBE4CCFAE4C8F922A4
:100C8500EB9FF5F0EA9E42F0E99D42F0E89C45F0C5
:010C9500223C
:0C0C9600ECF0A3EDF0A3EEF0A3EFF022D1
:100CA200A8828583F0D083D082120CB9120CB912BB
:100CB2000CB9120CB9E473E493A3C583C5F0C583E0
:100CC200C8C582C8F0A3C583C5F0C583C8C582C89C
:010CD20022FF
:00000001FF
